{"abi":[{"type":"function","name":"sender","inputs":[],"outputs":[{"name":"","type":"address","internalType":"address"}],"stateMutability":"view"}],"bytecode":{"object":"0x6080604052348015600e575f80fd5b50607380601a5f395ff3fe6080604052348015600e575f80fd5b50600436106026575f3560e01c806367e404ce14602a575b5f80fd5b6040805133815290519081900360200190f3fea2646970667358221220f95a8cf7c31d36d84439152c0032e0e56a66803c3a6c1c85422077ddf32d855364736f6c63430008180033","linkReferences":{}},"methodIdentifiers":{"sender()":"67e404ce"},"id":98}