{"abi":[{"type":"constructor","inputs":[{"name":"_manager","type":"address","internalType":"contract IPoolManager"}],"stateMutability":"nonpayable"},{"type":"function","name":"afterAddLiquidity","inputs":[{"name":"","type":"address","internalType":"address"},{"name":"","type":"tuple","internalType":"struct PoolKey","components":[{"name":"currency0","type":"address","internalType":"Currency"},{"name":"currency1","type":"address","internalType":"Currency"},{"name":"fee","type":"uint24","internalType":"uint24"},{"name":"tickSpacing","type":"int24","internalType":"int24"},{"name":"hooks","type":"address","internalType":"contract IHooks"}]},{"name":"","type":"tuple","internalType":"struct IPoolManager.ModifyLiquidityParams","components":[{"name":"tickLower","type":"int24","internalType":"int24"},{"name":"tickUpper","type":"int24","internalType":"int24"},{"name":"liquidityDelta","type":"int256","internalType":"int256"},{"name":"salt","type":"bytes32","internalType":"bytes32"}]},{"name":"","type":"int256","internalType":"BalanceDelta"},{"name":"","type":"bytes","internalType":"bytes"}],"outputs":[{"name":"","type":"bytes4","internalType":"bytes4"},{"name":"","type":"int256","internalType":"BalanceDelta"}],"stateMutability":"nonpayable"},{"type":"function","name":"afterDonate","inputs":[{"name":"","type":"address","internalType":"address"},{"name":"","type":"tuple","internalType":"struct PoolKey","components":[{"name":"currency0","type":"address","internalType":"Currency"},{"name":"currency1","type":"address","internalType":"Currency"},{"name":"fee","type":"uint24","internalType":"uint24"},{"name":"tickSpacing","type":"int24","internalType":"int24"},{"name":"hooks","type":"address","internalType":"contract IHooks"}]},{"name":"","type":"uint256","internalType":"uint256"},{"name":"","type":"uint256","internalType":"uint256"},{"name":"","type":"bytes","internalType":"bytes"}],"outputs":[{"name":"","type":"bytes4","internalType":"bytes4"}],"stateMutability":"nonpayable"},{"type":"function","name":"afterInitialize","inputs":[{"name":"","type":"address","internalType":"address"},{"name":"key","type":"tuple","internalType":"struct PoolKey","components":[{"name":"currency0","type":"address","internalType":"Currency"},{"name":"currency1","type":"address","internalType":"Currency"},{"name":"fee","type":"uint24","internalType":"uint24"},{"name":"tickSpacing","type":"int24","internalType":"int24"},{"name":"hooks","type":"address","internalType":"contract IHooks"}]},{"name":"","type":"uint160","internalType":"uint160"},{"name":"","type":"int24","internalType":"int24"},{"name":"","type":"bytes","internalType":"bytes"}],"outputs":[{"name":"","type":"bytes4","internalType":"bytes4"}],"stateMutability":"nonpayable"},{"type":"function","name":"afterRemoveLiquidity","inputs":[{"name":"","type":"address","internalType":"address"},{"name":"","type":"tuple","internalType":"struct PoolKey","components":[{"name":"currency0","type":"address","internalType":"Currency"},{"name":"currency1","type":"address","internalType":"Currency"},{"name":"fee","type":"uint24","internalType":"uint24"},{"name":"tickSpacing","type":"int24","internalType":"int24"},{"name":"hooks","type":"address","internalType":"contract IHooks"}]},{"name":"","type":"tuple","internalType":"struct IPoolManager.ModifyLiquidityParams","components":[{"name":"tickLower","type":"int24","internalType":"int24"},{"name":"tickUpper","type":"int24","internalType":"int24"},{"name":"liquidityDelta","type":"int256","internalType":"int256"},{"name":"salt","type":"bytes32","internalType":"bytes32"}]},{"name":"","type":"int256","internalType":"BalanceDelta"},{"name":"","type":"bytes","internalType":"bytes"}],"outputs":[{"name":"","type":"bytes4","internalType":"bytes4"},{"name":"","type":"int256","internalType":"BalanceDelta"}],"stateMutability":"nonpayable"},{"type":"function","name":"afterSwap","inputs":[{"name":"","type":"address","internalType":"address"},{"name":"","type":"tuple","internalType":"struct PoolKey","components":[{"name":"currency0","type":"address","internalType":"Currency"},{"name":"currency1","type":"address","internalType":"Currency"},{"name":"fee","type":"uint24","internalType":"uint24"},{"name":"tickSpacing","type":"int24","internalType":"int24"},{"name":"hooks","type":"address","internalType":"contract IHooks"}]},{"name":"","type":"tuple","internalType":"struct IPoolManager.SwapParams","components":[{"name":"zeroForOne","type":"bool","internalType":"bool"},{"name":"amountSpecified","type":"int256","internalType":"int256"},{"name":"sqrtPriceLimitX96","type":"uint160","internalType":"uint160"}]},{"name":"","type":"int256","internalType":"BalanceDelta"},{"name":"","type":"bytes","internalType":"bytes"}],"outputs":[{"name":"","type":"bytes4","internalType":"bytes4"},{"name":"","type":"int128","internalType":"int128"}],"stateMutability":"nonpayable"},{"type":"function","name":"beforeAddLiquidity","inputs":[{"name":"","type":"address","internalType":"address"},{"name":"key","type":"tuple","internalType":"struct PoolKey","components":[{"name":"currency0","type":"address","internalType":"Currency"},{"name":"currency1","type":"address","internalType":"Currency"},{"name":"fee","type":"uint24","internalType":"uint24"},{"name":"tickSpacing","type":"int24","internalType":"int24"},{"name":"hooks","type":"address","internalType":"contract IHooks"}]},{"name":"params","type":"tuple","internalType":"struct IPoolManager.ModifyLiquidityParams","components":[{"name":"tickLower","type":"int24","internalType":"int24"},{"name":"tickUpper","type":"int24","internalType":"int24"},{"name":"liquidityDelta","type":"int256","internalType":"int256"},{"name":"salt","type":"bytes32","internalType":"bytes32"}]},{"name":"","type":"bytes","internalType":"bytes"}],"outputs":[{"name":"","type":"bytes4","internalType":"bytes4"}],"stateMutability":"nonpayable"},{"type":"function","name":"beforeDonate","inputs":[{"name":"","type":"address","internalType":"address"},{"name":"","type":"tuple","internalType":"struct PoolKey","components":[{"name":"currency0","type":"address","internalType":"Currency"},{"name":"currency1","type":"address","internalType":"Currency"},{"name":"fee","type":"uint24","internalType":"uint24"},{"name":"tickSpacing","type":"int24","internalType":"int24"},{"name":"hooks","type":"address","internalType":"contract IHooks"}]},{"name":"","type":"uint256","internalType":"uint256"},{"name":"","type":"uint256","internalType":"uint256"},{"name":"","type":"bytes","internalType":"bytes"}],"outputs":[{"name":"","type":"bytes4","internalType":"bytes4"}],"stateMutability":"nonpayable"},{"type":"function","name":"beforeInitialize","inputs":[{"name":"","type":"address","internalType":"address"},{"name":"key","type":"tuple","internalType":"struct PoolKey","components":[{"name":"currency0","type":"address","internalType":"Currency"},{"name":"currency1","type":"address","internalType":"Currency"},{"name":"fee","type":"uint24","internalType":"uint24"},{"name":"tickSpacing","type":"int24","internalType":"int24"},{"name":"hooks","type":"address","internalType":"contract IHooks"}]},{"name":"","type":"uint160","internalType":"uint160"},{"name":"","type":"bytes","internalType":"bytes"}],"outputs":[{"name":"","type":"bytes4","internalType":"bytes4"}],"stateMutability":"view"},{"type":"function","name":"beforeRemoveLiquidity","inputs":[{"name":"","type":"address","internalType":"address"},{"name":"","type":"tuple","internalType":"struct PoolKey","components":[{"name":"currency0","type":"address","internalType":"Currency"},{"name":"currency1","type":"address","internalType":"Currency"},{"name":"fee","type":"uint24","internalType":"uint24"},{"name":"tickSpacing","type":"int24","internalType":"int24"},{"name":"hooks","type":"address","internalType":"contract IHooks"}]},{"name":"","type":"tuple","internalType":"struct IPoolManager.ModifyLiquidityParams","components":[{"name":"tickLower","type":"int24","internalType":"int24"},{"name":"tickUpper","type":"int24","internalType":"int24"},{"name":"liquidityDelta","type":"int256","internalType":"int256"},{"name":"salt","type":"bytes32","internalType":"bytes32"}]},{"name":"","type":"bytes","internalType":"bytes"}],"outputs":[{"name":"","type":"bytes4","internalType":"bytes4"}],"stateMutability":"view"},{"type":"function","name":"beforeSwap","inputs":[{"name":"","type":"address","internalType":"address"},{"name":"key","type":"tuple","internalType":"struct PoolKey","components":[{"name":"currency0","type":"address","internalType":"Currency"},{"name":"currency1","type":"address","internalType":"Currency"},{"name":"fee","type":"uint24","internalType":"uint24"},{"name":"tickSpacing","type":"int24","internalType":"int24"},{"name":"hooks","type":"address","internalType":"contract IHooks"}]},{"name":"","type":"tuple","internalType":"struct IPoolManager.SwapParams","components":[{"name":"zeroForOne","type":"bool","internalType":"bool"},{"name":"amountSpecified","type":"int256","internalType":"int256"},{"name":"sqrtPriceLimitX96","type":"uint160","internalType":"uint160"}]},{"name":"","type":"bytes","internalType":"bytes"}],"outputs":[{"name":"","type":"bytes4","internalType":"bytes4"},{"name":"","type":"int256","internalType":"BeforeSwapDelta"},{"name":"","type":"uint24","internalType":"uint24"}],"stateMutability":"nonpayable"},{"type":"function","name":"getHookPermissions","inputs":[],"outputs":[{"name":"","type":"tuple","internalType":"struct Hooks.Permissions","components":[{"name":"beforeInitialize","type":"bool","internalType":"bool"},{"name":"afterInitialize","type":"bool","internalType":"bool"},{"name":"beforeAddLiquidity","type":"bool","internalType":"bool"},{"name":"afterAddLiquidity","type":"bool","internalType":"bool"},{"name":"beforeRemoveLiquidity","type":"bool","internalType":"bool"},{"name":"afterRemoveLiquidity","type":"bool","internalType":"bool"},{"name":"beforeSwap","type":"bool","internalType":"bool"},{"name":"afterSwap","type":"bool","internalType":"bool"},{"name":"beforeDonate","type":"bool","internalType":"bool"},{"name":"afterDonate","type":"bool","internalType":"bool"},{"name":"beforeSwapReturnDelta","type":"bool","internalType":"bool"},{"name":"afterSwapReturnDelta","type":"bool","internalType":"bool"},{"name":"afterAddLiquidityReturnDelta","type":"bool","internalType":"bool"},{"name":"afterRemoveLiquidityReturnDelta","type":"bool","internalType":"bool"}]}],"stateMutability":"pure"},{"type":"function","name":"getObservation","inputs":[{"name":"key","type":"tuple","internalType":"struct PoolKey","components":[{"name":"currency0","type":"address","internalType":"Currency"},{"name":"currency1","type":"address","internalType":"Currency"},{"name":"fee","type":"uint24","internalType":"uint24"},{"name":"tickSpacing","type":"int24","internalType":"int24"},{"name":"hooks","type":"address","internalType":"contract IHooks"}]},{"name":"index","type":"uint256","internalType":"uint256"}],"outputs":[{"name":"observation","type":"tuple","internalType":"struct Oracle.Observation","components":[{"name":"blockTimestamp","type":"uint32","internalType":"uint32"},{"name":"tickCumulative","type":"int56","internalType":"int56"},{"name":"secondsPerLiquidityCumulativeX128","type":"uint160","internalType":"uint160"},{"name":"initialized","type":"bool","internalType":"bool"}]}],"stateMutability":"view"},{"type":"function","name":"getState","inputs":[{"name":"key","type":"tuple","internalType":"struct PoolKey","components":[{"name":"currency0","type":"address","internalType":"Currency"},{"name":"currency1","type":"address","internalType":"Currency"},{"name":"fee","type":"uint24","internalType":"uint24"},{"name":"tickSpacing","type":"int24","internalType":"int24"},{"name":"hooks","type":"address","internalType":"contract IHooks"}]}],"outputs":[{"name":"state","type":"tuple","internalType":"struct GeoMeanOracle.ObservationState","components":[{"name":"index","type":"uint16","internalType":"uint16"},{"name":"cardinality","type":"uint16","internalType":"uint16"},{"name":"cardinalityNext","type":"uint16","internalType":"uint16"}]}],"stateMutability":"view"},{"type":"function","name":"increaseCardinality","inputs":[{"name":"key","type":"tuple","internalType":"struct PoolKey","components":[{"name":"currency0","type":"address","internalType":"Currency"},{"name":"currency1","type":"address","internalType":"Currency"},{"name":"fee","type":"uint24","internalType":"uint24"},{"name":"tickSpacing","type":"int24","internalType":"int24"},{"name":"hooks","type":"address","internalType":"contract IHooks"}]},{"name":"cardinalityNext","type":"uint16","internalType":"uint16"}],"outputs":[{"name":"cardinalityNextOld","type":"uint16","internalType":"uint16"},{"name":"cardinalityNextNew","type":"uint16","internalType":"uint16"}],"stateMutability":"nonpayable"},{"type":"function","name":"manager","inputs":[],"outputs":[{"name":"","type":"address","internalType":"contract IPoolManager"}],"stateMutability":"view"},{"type":"function","name":"observations","inputs":[{"name":"","type":"bytes32","internalType":"PoolId"},{"name":"","type":"uint256","internalType":"uint256"}],"outputs":[{"name":"blockTimestamp","type":"uint32","internalType":"uint32"},{"name":"tickCumulative","type":"int56","internalType":"int56"},{"name":"secondsPerLiquidityCumulativeX128","type":"uint160","internalType":"uint160"},{"name":"initialized","type":"bool","internalType":"bool"}],"stateMutability":"view"},{"type":"function","name":"observe","inputs":[{"name":"key","type":"tuple","internalType":"struct PoolKey","components":[{"name":"currency0","type":"address","internalType":"Currency"},{"name":"currency1","type":"address","internalType":"Currency"},{"name":"fee","type":"uint24","internalType":"uint24"},{"name":"tickSpacing","type":"int24","internalType":"int24"},{"name":"hooks","type":"address","internalType":"contract IHooks"}]},{"name":"secondsAgos","type":"uint32[]","internalType":"uint32[]"}],"outputs":[{"name":"tickCumulatives","type":"int56[]","internalType":"int56[]"},{"name":"secondsPerLiquidityCumulativeX128s","type":"uint160[]","internalType":"uint160[]"}],"stateMutability":"view"},{"type":"function","name":"states","inputs":[{"name":"","type":"bytes32","internalType":"PoolId"}],"outputs":[{"name":"index","type":"uint16","internalType":"uint16"},{"name":"cardinality","type":"uint16","internalType":"uint16"},{"name":"cardinalityNext","type":"uint16","internalType":"uint16"}],"stateMutability":"view"},{"type":"function","name":"unlockCallback","inputs":[{"name":"data","type":"bytes","internalType":"bytes"}],"outputs":[{"name":"","type":"bytes","internalType":"bytes"}],"stateMutability":"nonpayable"},{"type":"error","name":"HookNotImplemented","inputs":[]},{"type":"error","name":"InvalidPool","inputs":[]},{"type":"error","name":"LockFailure","inputs":[]},{"type":"error","name":"NotManager","inputs":[]},{"type":"error","name":"NotSelf","inputs":[]},{"type":"error","name":"OnlyOneOraclePoolAllowed","inputs":[]},{"type":"error","name":"OracleCardinalityCannotBeZero","inputs":[]},{"type":"error","name":"OraclePoolMustLockLiquidity","inputs":[]},{"type":"error","name":"OraclePositionsMustBeFullRange","inputs":[]},{"type":"error","name":"TargetPredatesOldestObservation","inputs":[{"name":"oldestTimestamp","type":"uint32","internalType":"uint32"},{"name":"targetTimestamp","type":"uint32","internalType":"uint32"}]}],"bytecode":{"object":"0x60a060405234801562000010575f80fd5b5060405162002f5d38038062002f5d8339810160408190526200003391620002b9565b6001600160a01b038116608052806200004c3062000054565b5050620002e8565b6200014a8162000144604080516101c0810182525f80825260208201819052918101829052606081018290526080810182905260a0810182905260c0810182905260e08101829052610100810182905261012081018290526101408101829052610160810182905261018081018290526101a081019190915250604080516101c0810182526001808252602082018190529181018290525f606082018190526080820183905260a0820181905260c082019290925260e08101829052610100810182905261012081018290526101408101829052610160810182905261018081018290526101a081019190915290565b6200014d565b50565b8051151561200083161515141580620001725750602081015115156110008316151514155b806200018a5750604081015115156108008316151514155b80620001a25750606081015115156104008316151514155b80620001ba5750608081015115156102008316151514155b80620001d2575060a081015115156101008316151514155b80620001e9575060c0810151151560808316151514155b8062000200575060e0810151151560408316151514155b80620002185750610100810151151560208316151514155b80620002305750610120810151151560108316151514155b80620002485750610140810151151560088316151514155b80620002605750610160810151151560048316151514155b80620002785750610180810151151560028316151514155b806200029057506101a0810151151560018316151514155b15620002a957620002a9630732d7b560e51b83620002ad565b5050565b815f528060045260245ffd5b5f60208284031215620002ca575f80fd5b81516001600160a01b0381168114620002e1575f80fd5b9392505050565b608051612c08620003555f395f81816101c1015281816105f601528181610698015281816106f20152818161084a015281816108c0015281816109e101528181610ac001528181610bfe01528181610fef015281816110210152818161115101526111830152612c085ff3fe608060405234801561000f575f80fd5b5060043610610149575f3560e01c8063a910f80f116100c7578063e1b4af691161007d578063efb40e5711610063578063efb40e57146104f7578063f96f97f21461055e578063fbdc1ef11461057f575f80fd5b8063e1b4af6914610353578063e3b077a1146104b7575f80fd5b8063b6a8b0fa116100ad578063b6a8b0fa14610353578063c4e833ce14610366578063dd71cea81461045d575f80fd5b8063a910f80f146102f7578063b47b2fb11461030a575f80fd5b8063575e24b41161011c5780638db2b652116101025780638db2b6521461025e57806391dd7346146102a95780639f6569e0146102c9575f80fd5b8063575e24b4146102085780635a2a81001461025e575f80fd5b806321d0ee701461014d578063259982e5146101965780633440d820146101a9578063481c6a75146101bc575b5f80fd5b61016061015b3660046122ed565b6105dd565b6040517fffffffff0000000000000000000000000000000000000000000000000000000090911681526020015b60405180910390f35b6101606101a43660046122ed565b61067f565b6101606101b7366004612364565b610831565b6101e37f000000000000000000000000000000000000000000000000000000000000000081565b60405173ffffffffffffffffffffffffffffffffffffffff909116815260200161018d565b61021b6102163660046123ce565b6109c6565b604080517fffffffff000000000000000000000000000000000000000000000000000000009094168452602084019290925262ffffff169082015260600161018d565b61027161026c366004612428565b610a72565b604080517fffffffff00000000000000000000000000000000000000000000000000000000909316835260208301919091520161018d565b6102bc6102b73660046124a9565b610aa6565b60405161018d91906124e8565b6102dc6102d7366004612552565b610b2a565b6040805161ffff93841681529290911660208301520161018d565b6101606103053660046125a7565b610be5565b61031861026c366004612613565b604080517fffffffff000000000000000000000000000000000000000000000000000000009093168352600f9190910b60208301520161018d565b610160610361366004612676565b610d28565b610450604080516101c0810182525f80825260208201819052918101829052606081018290526080810182905260a0810182905260c0810182905260e08101829052610100810182905261012081018290526101408101829052610160810182905261018081018290526101a081019190915250604080516101c0810182526001808252602082018190529181018290525f606082018190526080820183905260a0820181905260c082019290925260e08101829052610100810182905261012081018290526101408101829052610160810182905261018081018290526101a081019190915290565b60405161018d91906126d0565b61047061046b3660046127bc565b610d5b565b6040805163ffffffff909516855260069390930b602085015273ffffffffffffffffffffffffffffffffffffffff909116918301919091521515606082015260800161018d565b6104ca6104c53660046127dc565b610ddb565b60408051825161ffff9081168252602080850151821690830152928201519092169082015260600161018d565b61050a6105053660046127f6565b610e88565b60405161018d9190815163ffffffff16815260208083015160060b9082015260408083015173ffffffffffffffffffffffffffffffffffffffff169082015260609182015115159181019190915260800190565b61057161056c36600461281f565b610f7c565b60405161018d92919061289f565b6105b861058d366004612931565b60016020525f908152604090205461ffff808216916201000081048216916401000000009091041683565b6040805161ffff9485168152928416602084015292169181019190915260600161018d565b5f3373ffffffffffffffffffffffffffffffffffffffff7f0000000000000000000000000000000000000000000000000000000000000000161461064d576040517fc0fc8a8a00000000000000000000000000000000000000000000000000000000815260040160405180910390fd5b6040517fc7e87ced00000000000000000000000000000000000000000000000000000000815260040160405180910390fd5b5f3373ffffffffffffffffffffffffffffffffffffffff7f000000000000000000000000000000000000000000000000000000000000000016146106ef576040517fc0fc8a8a00000000000000000000000000000000000000000000000000000000815260040160405180910390fd5b5f7f000000000000000000000000000000000000000000000000000000000000000073ffffffffffffffffffffffffffffffffffffffff166360460f066040518163ffffffff1660e01b8152600401602060405180830381865afa158015610759573d5f803e3d5ffd5b505050506040513d601f19601f8201168201806040525081019061077d9190612948565b9050610788816110cc565b60020b6107986020870187612963565b60020b1415806107c557506107ac81611109565b60020b6107bf6040870160208801612963565b60020b14155b156107fc576040517fd07a010d00000000000000000000000000000000000000000000000000000000815260040160405180910390fd5b61080586611121565b507f259982e5000000000000000000000000000000000000000000000000000000009695505050505050565b5f3373ffffffffffffffffffffffffffffffffffffffff7f000000000000000000000000000000000000000000000000000000000000000016146108a1576040517fc0fc8a8a00000000000000000000000000000000000000000000000000000000815260040160405180910390fd5b6108b16060860160408701612990565b62ffffff1615158061096457507f000000000000000000000000000000000000000000000000000000000000000073ffffffffffffffffffffffffffffffffffffffff166360460f066040518163ffffffff1660e01b8152600401602060405180830381865afa158015610927573d5f803e3d5ffd5b505050506040513d601f19601f8201168201806040525081019061094b9190612948565b60020b61095e6080870160608801612963565b60020b14155b1561099b576040517fc424964a00000000000000000000000000000000000000000000000000000000815260040160405180910390fd5b507f3440d8200000000000000000000000000000000000000000000000000000000095945050505050565b5f80803373ffffffffffffffffffffffffffffffffffffffff7f00000000000000000000000000000000000000000000000000000000000000001614610a38576040517fc0fc8a8a00000000000000000000000000000000000000000000000000000000815260040160405180910390fd5b610a4187611121565b507f575e24b400000000000000000000000000000000000000000000000000000000975f9750879650945050505050565b5f806040517f0a85dc2900000000000000000000000000000000000000000000000000000000815260040160405180910390fd5b60603373ffffffffffffffffffffffffffffffffffffffff7f00000000000000000000000000000000000000000000000000000000000000001614610b17576040517fc0fc8a8a00000000000000000000000000000000000000000000000000000000815260040160405180910390fd5b610b218383611277565b90505b92915050565b5f805f84604051602001610b3e91906129a9565b604080518083037fffffffffffffffffffffffffffffffffffffffffffffffffffffffffffffffe001815291815281516020928301205f8181526001845282812080549482905292902064010000000090930461ffff169550925090610ba5908587611336565b81547fffffffffffffffffffffffffffffffffffffffffffffffffffff0000ffffffff1664010000000061ffff8316021790915592959294509192505050565b5f3373ffffffffffffffffffffffffffffffffffffffff7f00000000000000000000000000000000000000000000000000000000000000001614610c55576040517fc0fc8a8a00000000000000000000000000000000000000000000000000000000815260040160405180910390fd5b5f610c6f610c6836899003890189612a65565b60a0902090565b9050610c88425f838152602081905260409020906113fd565b5f9283526001602052604090922080547fffffffffffffffffffffffffffffffffffffffffffffffffffff00000000ffff1664010000000061ffff948516027fffffffffffffffffffffffffffffffffffffffffffffffffffffffff0000ffff1617620100009290931691909102919091179055507fa910f80f000000000000000000000000000000000000000000000000000000009695505050505050565b5f6040517f0a85dc2900000000000000000000000000000000000000000000000000000000815260040160405180910390fd5b5f602052815f5260405f208161ffff8110610d74575f80fd5b015463ffffffff81169250640100000000810460060b91506b010000000000000000000000810473ffffffffffffffffffffffffffffffffffffffff16907f0100000000000000000000000000000000000000000000000000000000000000900460ff1684565b604080516060810182525f808252602082018190529181019190915260015f83604051602001610e0b91906129a9565b604080517fffffffffffffffffffffffffffffffffffffffffffffffffffffffffffffffe081840301815291815281516020928301208352828201939093529082015f208251606081018452905461ffff808216835262010000820481169383019390935264010000000090049091169181019190915292915050565b604080516080810182525f8082526020820181905291810182905260608101919091525f8084604051602001610ebe91906129a9565b6040516020818303038152906040528051906020012081526020019081526020015f208261ffff8110610ef357610ef3612b1a565b60408051608081018252929091015463ffffffff81168352640100000000810460060b602084015273ffffffffffffffffffffffffffffffffffffffff6b0100000000000000000000008204169183019190915260ff7f010000000000000000000000000000000000000000000000000000000000000090910416151560608201529392505050565b6060805f610f92610c6836889003880188612a65565b5f8181526001602090815260408083208151606081018352905461ffff808216835262010000820481169483019490945264010000000090049092169082015291925061101573ffffffffffffffffffffffffffffffffffffffff7f00000000000000000000000000000000000000000000000000000000000000001684611459565b50509150505f611064847f000000000000000000000000000000000000000000000000000000000000000073ffffffffffffffffffffffffffffffffffffffff1661153e90919063ffffffff16565b90506110bc428989808060200260200160405190810160405280939291908181526020018383602002808284375f92018290525089516020808c01518d845290839052604090922096959450899350915087906115f0565b9550955050505050935093915050565b5f81600281900b7ffffffffffffffffffffffffffffffffffffffffffffffffffffffffffff276188161110157611101612b47565b050292915050565b5f81600281900b620d89e88161110157611101612b47565b5f611134610c6836849003840184612a65565b90505f61117773ffffffffffffffffffffffffffffffffffffffff7f00000000000000000000000000000000000000000000000000000000000000001683611459565b50509150505f6111c6837f000000000000000000000000000000000000000000000000000000000000000073ffffffffffffffffffffffffffffffffffffffff1661153e90919063ffffffff16565b5f848152600160209081526040808320549183905290912091925061120a919061ffff8082169142918791879162010000820481169164010000000090041661175f565b5f9485526001602052604090942080547fffffffffffffffffffffffffffffffffffffffffffffffffffffffff00000000166201000061ffff968716027fffffffffffffffffffffffffffffffffffffffffffffffffffffffffffff000016179190941617909255505050565b60605f803073ffffffffffffffffffffffffffffffffffffffff1685856040516112a2929190612b74565b5f604051808303815f865af19150503d805f81146112db576040519150601f19603f3d011682016040523d82523d5f602084013e6112e0565b606091505b509150915081156112f4579150610b249050565b80515f0361132e576040517fa40afa3800000000000000000000000000000000000000000000000000000000815260040160405180910390fd5b805160208201fd5b5f8261ffff165f03611374576040517fab7760cc00000000000000000000000000000000000000000000000000000000815260040160405180910390fd5b8261ffff168261ffff161161138a5750816113f6565b825b8261ffff168161ffff1610156113f1576001858261ffff1661ffff81106113b5576113b5612b1a565b0180547fffffffffffffffffffffffffffffffffffffffffffffffffffffffff000000001663ffffffff9290921691909117905560010161138c565b508190505b9392505050565b6040805160808101825263ffffffff83168082525f6020830181905292820192909252600160609091018190527f01000000000000000000000000000000000000000000000000000000000000009091178355805b9250929050565b5f805f805f61146786611975565b6040517f1e2eaeaf000000000000000000000000000000000000000000000000000000008152600481018290529091505f9073ffffffffffffffffffffffffffffffffffffffff891690631e2eaeaf90602401602060405180830381865afa1580156114d5573d5f803e3d5ffd5b505050506040513d601f19601f820116820180604052508101906114f99190612b83565b905073ffffffffffffffffffffffffffffffffffffffff811695508060a01c60020b945062ffffff8160b81c16935062ffffff8160d01c169250505092959194509250565b5f8061154983611975565b90505f611557600383612b9a565b6040517f1e2eaeaf0000000000000000000000000000000000000000000000000000000081526004810182905290915073ffffffffffffffffffffffffffffffffffffffff861690631e2eaeaf90602401602060405180830381865afa1580156115c3573d5f803e3d5ffd5b505050506040513d601f19601f820116820180604052508101906115e79190612b83565b95945050505050565b6060808261ffff165f03611630576040517fab7760cc00000000000000000000000000000000000000000000000000000000815260040160405180910390fd5b865167ffffffffffffffff81111561164a5761164a612a38565b604051908082528060200260200182016040528015611673578160200160208202803683370190505b509150865167ffffffffffffffff81111561169057611690612a38565b6040519080825280602002602001820160405280156116b9578160200160208202803683370190505b5090505f5b8751811015611752576116ef8a8a8a84815181106116de576116de612b1a565b60200260200101518a8a8a8a6119b1565b84838151811061170157611701612b1a565b6020026020010184848151811061171a5761171a612b1a565b73ffffffffffffffffffffffffffffffffffffffff9093166020938402919091019092019190915260069190910b90526001016116be565b5097509795505050505050565b5f805f898961ffff1661ffff811061177957611779612b1a565b60408051608081018252919092015463ffffffff808216808452640100000000830460060b60208501526b010000000000000000000000830473ffffffffffffffffffffffffffffffffffffffff16948401949094527f010000000000000000000000000000000000000000000000000000000000000090910460ff1615156060830152909250891690036118145788859250925050611969565b8461ffff168461ffff1611801561183557506001850361ffff168961ffff16145b1561184257839150611846565b8491505b8161ffff168960010161ffff168161186057611860612b47565b06925061186f81898989611b94565b8a8461ffff1661ffff811061188657611886612b1a565b8251910180546020840151604085015160609095015115157f0100000000000000000000000000000000000000000000000000000000000000027effffffffffffffffffffffffffffffffffffffffffffffffffffffffffffff73ffffffffffffffffffffffffffffffffffffffff9096166b01000000000000000000000002959095166affffffffffffffffffffff66ffffffffffffff909216640100000000027fffffffffffffffffffffffffffffffffffffffffff000000000000000000000090931663ffffffff90951694909417919091171691909117919091179055505b97509795505050505050565b6040515f90611994908390600690602001918252602082015260400190565b604051602081830303815290604052805190602001209050919050565b5f808663ffffffff165f03611a89575f898661ffff1661ffff81106119d8576119d8612b1a565b60408051608081018252919092015463ffffffff808216808452640100000000830460060b60208501526b010000000000000000000000830473ffffffffffffffffffffffffffffffffffffffff16948401949094527f010000000000000000000000000000000000000000000000000000000000000090910460ff16151560608301529092508a1614611a7557611a72818a8988611b94565b90505b806020015181604001519250925050611969565b8688035f80611a9d8c8c858c8c8c8c611c81565b91509150815f015163ffffffff168363ffffffff1603611acd578160200151826040015194509450505050611969565b805f015163ffffffff168363ffffffff1603611af9578060200151816040015194509450505050611969565b5f825f0151825f01510390505f835f0151850390508063ffffffff168263ffffffff1660060b856020015185602001510360060b81611b3a57611b3a612b47565b05028460200151018263ffffffff168263ffffffff16866040015186604001510373ffffffffffffffffffffffffffffffffffffffff160281611b7f57611b7f612b47565b04856040015101965096505050505050611969565b604080516080810182525f8082526020820181905291810182905260608101919091525f855f01518503905060405180608001604052808663ffffffff1681526020018263ffffffff168660020b0288602001510160060b81526020015f856fffffffffffffffffffffffffffffffff1611611c11576001611c13565b845b6fffffffffffffffffffffffffffffffff1673ffffffff00000000000000000000000000000000608085901b1681611c4d57611c4d612b47565b0488604001510173ffffffffffffffffffffffffffffffffffffffff16815260200160011515815250915050949350505050565b604080516080810182525f808252602082018190529181018290526060810191909152604080516080810182525f808252602082018190529181018290526060810191909152888561ffff1661ffff8110611cde57611cde612b1a565b60408051608081018252919092015463ffffffff8116808352640100000000820460060b60208401526b010000000000000000000000820473ffffffffffffffffffffffffffffffffffffffff16938301939093527f0100000000000000000000000000000000000000000000000000000000000000900460ff16151560608201529250611d6e90899089611f50565b15611d9a57815163ffffffff8881169116146119695781611d9183898988611b94565b91509150611969565b888361ffff168660010161ffff1681611db557611db5612b47565b0661ffff1661ffff8110611dcb57611dcb612b1a565b60408051608081018252929091015463ffffffff81168352640100000000810460060b602084015273ffffffffffffffffffffffffffffffffffffffff6b0100000000000000000000008204169183019190915260ff7f010000000000000000000000000000000000000000000000000000000000000090910416151560608201819052909250611ed857604080516080810182528a5463ffffffff81168252640100000000810460060b60208301526b010000000000000000000000810473ffffffffffffffffffffffffffffffffffffffff16928201929092527f010000000000000000000000000000000000000000000000000000000000000090910460ff161515606082015291505b611ee688835f015189611f50565b611f335781516040517f28e44dc000000000000000000000000000000000000000000000000000000000815263ffffffff9182166004820152908816602482015260440160405180910390fd5b611f408989898887612010565b9150915097509795505050505050565b5f8363ffffffff168363ffffffff1611158015611f7957508363ffffffff168263ffffffff1611155b15611f95578163ffffffff168363ffffffff16111590506113f6565b5f8463ffffffff168463ffffffff1611611fbc578363ffffffff1664010000000001611fc4565b8363ffffffff165b64ffffffffff1690505f8563ffffffff168463ffffffff1611611ff4578363ffffffff1664010000000001611ffc565b8363ffffffff165b64ffffffffff169091111595945050505050565b604080516080810182525f808252602082018190529181018290526060810191909152604080516080810182525f8082526020820181905291810182905260608101919091525f8361ffff168560010161ffff168161207157612071612b47565b0661ffff1690505f60018561ffff1683010390505f5b506002818301048961ffff871682816120a2576120a2612b47565b0661ffff81106120b4576120b4612b1a565b60408051608081018252929091015463ffffffff81168352640100000000810460060b602084015273ffffffffffffffffffffffffffffffffffffffff6b0100000000000000000000008204169183019190915260ff7f01000000000000000000000000000000000000000000000000000000000000009091041615156060820181905290955061214a57806001019250612087565b898661ffff16826001018161216157612161612b47565b0661ffff811061217357612173612b1a565b60408051608081018252929091015463ffffffff81168352640100000000810460060b602084015273ffffffffffffffffffffffffffffffffffffffff6b0100000000000000000000008204169183019190915260ff7f0100000000000000000000000000000000000000000000000000000000000000909104161515606082015285519094505f90612208908b908b611f50565b905080801561222057506122208a8a875f0151611f50565b1561222b5750612248565b8061223b57600182039250612242565b8160010193505b50612087565b5050509550959350505050565b73ffffffffffffffffffffffffffffffffffffffff81168114612276575f80fd5b50565b803561228481612255565b919050565b5f60a08284031215612299575f80fd5b50919050565b5f60808284031215612299575f80fd5b5f8083601f8401126122bf575f80fd5b50813567ffffffffffffffff8111156122d6575f80fd5b602083019150836020828501011115611452575f80fd5b5f805f805f6101608688031215612302575f80fd5b853561230d81612255565b945061231c8760208801612289565b935061232b8760c0880161229f565b925061014086013567ffffffffffffffff811115612347575f80fd5b612353888289016122af565b969995985093965092949392505050565b5f805f805f6101008688031215612379575f80fd5b853561238481612255565b94506123938760208801612289565b935060c08601356123a381612255565b925060e086013567ffffffffffffffff811115612347575f80fd5b5f60608284031215612299575f80fd5b5f805f805f61014086880312156123e3575f80fd5b85356123ee81612255565b94506123fd8760208801612289565b935061240c8760c088016123be565b925061012086013567ffffffffffffffff811115612347575f80fd5b5f805f805f80610180878903121561243e575f80fd5b863561244981612255565b95506124588860208901612289565b94506124678860c0890161229f565b9350610140870135925061016087013567ffffffffffffffff81111561248b575f80fd5b61249789828a016122af565b979a9699509497509295939492505050565b5f80602083850312156124ba575f80fd5b823567ffffffffffffffff8111156124d0575f80fd5b6124dc858286016122af565b90969095509350505050565b5f602080835283518060208501525f5b81811015612514578581018301518582016040015282016124f8565b505f6040828601015260407fffffffffffffffffffffffffffffffffffffffffffffffffffffffffffffffe0601f8301168501019250505092915050565b5f8060c08385031215612563575f80fd5b61256d8484612289565b915060a083013561ffff81168114612583575f80fd5b809150509250929050565b8060020b8114612276575f80fd5b80356122848161258e565b5f805f805f8061012087890312156125bd575f80fd5b86356125c881612255565b95506125d78860208901612289565b945060c08701356125e781612255565b935060e08701356125f78161258e565b925061010087013567ffffffffffffffff81111561248b575f80fd5b5f805f805f806101608789031215612629575f80fd5b863561263481612255565b95506126438860208901612289565b94506126528860c089016123be565b9350610120870135925061014087013567ffffffffffffffff81111561248b575f80fd5b5f805f805f80610120878903121561268c575f80fd5b863561269781612255565b95506126a68860208901612289565b945060c0870135935060e0870135925061010087013567ffffffffffffffff81111561248b575f80fd5b8151151581526101c0810160208301516126ee602084018215159052565b506040830151612702604084018215159052565b506060830151612716606084018215159052565b50608083015161272a608084018215159052565b5060a083015161273e60a084018215159052565b5060c083015161275260c084018215159052565b5060e083015161276660e084018215159052565b5061010083810151151590830152610120808401511515908301526101408084015115159083015261016080840151151590830152610180808401511515908301526101a0928301511515929091019190915290565b5f80604083850312156127cd575f80fd5b50508035926020909101359150565b5f60a082840312156127ec575f80fd5b610b218383612289565b5f8060c08385031215612807575f80fd5b6128118484612289565b9460a0939093013593505050565b5f805f60c08486031215612831575f80fd5b61283b8585612289565b925060a084013567ffffffffffffffff80821115612857575f80fd5b818601915086601f83011261286a575f80fd5b813581811115612878575f80fd5b8760208260051b850101111561288c575f80fd5b6020830194508093505050509250925092565b604080825283519082018190525f906020906060840190828701845b828110156128da57815160060b845292840192908401906001016128bb565b505050838103828501528451808252858301918301905f5b8181101561292457835173ffffffffffffffffffffffffffffffffffffffff16835292840192918401916001016128f2565b5090979650505050505050565b5f60208284031215612941575f80fd5b5035919050565b5f60208284031215612958575f80fd5b81516113f68161258e565b5f60208284031215612973575f80fd5b81356113f68161258e565b803562ffffff81168114612284575f80fd5b5f602082840312156129a0575f80fd5b610b218261297e565b60a0810182356129b881612255565b73ffffffffffffffffffffffffffffffffffffffff90811683526020840135906129e182612255565b808216602085015262ffffff6129f96040870161297e565b16604085015260608501359150612a0f8261258e565b8160020b606085015260808501359150612a2882612255565b8082166080850152505092915050565b7f4e487b71000000000000000000000000000000000000000000000000000000005f52604160045260245ffd5b5f60a08284031215612a75575f80fd5b60405160a0810181811067ffffffffffffffff82111715612abd577f4e487b71000000000000000000000000000000000000000000000000000000005f52604160045260245ffd5b6040528235612acb81612255565b81526020830135612adb81612255565b6020820152612aec6040840161297e565b6040820152612afd6060840161259c565b6060820152612b0e60808401612279565b60808201529392505050565b7f4e487b71000000000000000000000000000000000000000000000000000000005f52603260045260245ffd5b7f4e487b71000000000000000000000000000000000000000000000000000000005f52601260045260245ffd5b818382375f9101908152919050565b5f60208284031215612b93575f80fd5b5051919050565b80820180821115610b24577f4e487b71000000000000000000000000000000000000000000000000000000005f52601160045260245ffdfea264697066735822122035b34c1e975174b1fbcb788e32c76c8c1daaa28d9bc0ec6ba7a6df5a1439675664736f6c63430008180033","linkReferences":{}},"methodIdentifiers":{"afterAddLiquidity(address,(address,address,uint24,int24,address),(int24,int24,int256,bytes32),int256,bytes)":"5a2a8100","afterDonate(address,(address,address,uint24,int24,address),uint256,uint256,bytes)":"e1b4af69","afterInitialize(address,(address,address,uint24,int24,address),uint160,int24,bytes)":"a910f80f","afterRemoveLiquidity(address,(address,address,uint24,int24,address),(int24,int24,int256,bytes32),int256,bytes)":"8db2b652","afterSwap(address,(address,address,uint24,int24,address),(bool,int256,uint160),int256,bytes)":"b47b2fb1","beforeAddLiquidity(address,(address,address,uint24,int24,address),(int24,int24,int256,bytes32),bytes)":"259982e5","beforeDonate(address,(address,address,uint24,int24,address),uint256,uint256,bytes)":"b6a8b0fa","beforeInitialize(address,(address,address,uint24,int24,address),uint160,bytes)":"3440d820","beforeRemoveLiquidity(address,(address,address,uint24,int24,address),(int24,int24,int256,bytes32),bytes)":"21d0ee70","beforeSwap(address,(address,address,uint24,int24,address),(bool,int256,uint160),bytes)":"575e24b4","getHookPermissions()":"c4e833ce","getObservation((address,address,uint24,int24,address),uint256)":"efb40e57","getState((address,address,uint24,int24,address))":"e3b077a1","increaseCardinality((address,address,uint24,int24,address),uint16)":"9f6569e0","manager()":"481c6a75","observations(bytes32,uint256)":"dd71cea8","observe((address,address,uint24,int24,address),uint32[])":"f96f97f2","states(bytes32)":"fbdc1ef1","unlockCallback(bytes)":"91dd7346"},"id":93}