{"abi":[{"type":"constructor","inputs":[{"name":"_poolManager","type":"address","internalType":"contract IPoolManager"},{"name":"addressToEtch","type":"address","internalType":"contract GeoMeanOracle"}],"stateMutability":"nonpayable"},{"type":"function","name":"afterAddLiquidity","inputs":[{"name":"","type":"address","internalType":"address"},{"name":"","type":"tuple","internalType":"struct PoolKey","components":[{"name":"currency0","type":"address","internalType":"Currency"},{"name":"currency1","type":"address","internalType":"Currency"},{"name":"fee","type":"uint24","internalType":"uint24"},{"name":"tickSpacing","type":"int24","internalType":"int24"},{"name":"hooks","type":"address","internalType":"contract IHooks"}]},{"name":"","type":"tuple","internalType":"struct IPoolManager.ModifyLiquidityParams","components":[{"name":"tickLower","type":"int24","internalType":"int24"},{"name":"tickUpper","type":"int24","internalType":"int24"},{"name":"liquidityDelta","type":"int256","internalType":"int256"},{"name":"salt","type":"bytes32","internalType":"bytes32"}]},{"name":"","type":"int256","internalType":"BalanceDelta"},{"name":"","type":"bytes","internalType":"bytes"}],"outputs":[{"name":"","type":"bytes4","internalType":"bytes4"},{"name":"","type":"int256","internalType":"BalanceDelta"}],"stateMutability":"nonpayable"},{"type":"function","name":"afterDonate","inputs":[{"name":"","type":"address","internalType":"address"},{"name":"","type":"tuple","internalType":"struct PoolKey","components":[{"name":"currency0","type":"address","internalType":"Currency"},{"name":"currency1","type":"address","internalType":"Currency"},{"name":"fee","type":"uint24","internalType":"uint24"},{"name":"tickSpacing","type":"int24","internalType":"int24"},{"name":"hooks","type":"address","internalType":"contract IHooks"}]},{"name":"","type":"uint256","internalType":"uint256"},{"name":"","type":"uint256","internalType":"uint256"},{"name":"","type":"bytes","internalType":"bytes"}],"outputs":[{"name":"","type":"bytes4","internalType":"bytes4"}],"stateMutability":"nonpayable"},{"type":"function","name":"afterInitialize","inputs":[{"name":"","type":"address","internalType":"address"},{"name":"key","type":"tuple","internalType":"struct PoolKey","components":[{"name":"currency0","type":"address","internalType":"Currency"},{"name":"currency1","type":"address","internalType":"Currency"},{"name":"fee","type":"uint24","internalType":"uint24"},{"name":"tickSpacing","type":"int24","internalType":"int24"},{"name":"hooks","type":"address","internalType":"contract IHooks"}]},{"name":"","type":"uint160","internalType":"uint160"},{"name":"","type":"int24","internalType":"int24"},{"name":"","type":"bytes","internalType":"bytes"}],"outputs":[{"name":"","type":"bytes4","internalType":"bytes4"}],"stateMutability":"nonpayable"},{"type":"function","name":"afterRemoveLiquidity","inputs":[{"name":"","type":"address","internalType":"address"},{"name":"","type":"tuple","internalType":"struct PoolKey","components":[{"name":"currency0","type":"address","internalType":"Currency"},{"name":"currency1","type":"address","internalType":"Currency"},{"name":"fee","type":"uint24","internalType":"uint24"},{"name":"tickSpacing","type":"int24","internalType":"int24"},{"name":"hooks","type":"address","internalType":"contract IHooks"}]},{"name":"","type":"tuple","internalType":"struct IPoolManager.ModifyLiquidityParams","components":[{"name":"tickLower","type":"int24","internalType":"int24"},{"name":"tickUpper","type":"int24","internalType":"int24"},{"name":"liquidityDelta","type":"int256","internalType":"int256"},{"name":"salt","type":"bytes32","internalType":"bytes32"}]},{"name":"","type":"int256","internalType":"BalanceDelta"},{"name":"","type":"bytes","internalType":"bytes"}],"outputs":[{"name":"","type":"bytes4","internalType":"bytes4"},{"name":"","type":"int256","internalType":"BalanceDelta"}],"stateMutability":"nonpayable"},{"type":"function","name":"afterSwap","inputs":[{"name":"","type":"address","internalType":"address"},{"name":"","type":"tuple","internalType":"struct PoolKey","components":[{"name":"currency0","type":"address","internalType":"Currency"},{"name":"currency1","type":"address","internalType":"Currency"},{"name":"fee","type":"uint24","internalType":"uint24"},{"name":"tickSpacing","type":"int24","internalType":"int24"},{"name":"hooks","type":"address","internalType":"contract IHooks"}]},{"name":"","type":"tuple","internalType":"struct IPoolManager.SwapParams","components":[{"name":"zeroForOne","type":"bool","internalType":"bool"},{"name":"amountSpecified","type":"int256","internalType":"int256"},{"name":"sqrtPriceLimitX96","type":"uint160","internalType":"uint160"}]},{"name":"","type":"int256","internalType":"BalanceDelta"},{"name":"","type":"bytes","internalType":"bytes"}],"outputs":[{"name":"","type":"bytes4","internalType":"bytes4"},{"name":"","type":"int128","internalType":"int128"}],"stateMutability":"nonpayable"},{"type":"function","name":"beforeAddLiquidity","inputs":[{"name":"","type":"address","internalType":"address"},{"name":"key","type":"tuple","internalType":"struct PoolKey","components":[{"name":"currency0","type":"address","internalType":"Currency"},{"name":"currency1","type":"address","internalType":"Currency"},{"name":"fee","type":"uint24","internalType":"uint24"},{"name":"tickSpacing","type":"int24","internalType":"int24"},{"name":"hooks","type":"address","internalType":"contract IHooks"}]},{"name":"params","type":"tuple","internalType":"struct IPoolManager.ModifyLiquidityParams","components":[{"name":"tickLower","type":"int24","internalType":"int24"},{"name":"tickUpper","type":"int24","internalType":"int24"},{"name":"liquidityDelta","type":"int256","internalType":"int256"},{"name":"salt","type":"bytes32","internalType":"bytes32"}]},{"name":"","type":"bytes","internalType":"bytes"}],"outputs":[{"name":"","type":"bytes4","internalType":"bytes4"}],"stateMutability":"nonpayable"},{"type":"function","name":"beforeDonate","inputs":[{"name":"","type":"address","internalType":"address"},{"name":"","type":"tuple","internalType":"struct PoolKey","components":[{"name":"currency0","type":"address","internalType":"Currency"},{"name":"currency1","type":"address","internalType":"Currency"},{"name":"fee","type":"uint24","internalType":"uint24"},{"name":"tickSpacing","type":"int24","internalType":"int24"},{"name":"hooks","type":"address","internalType":"contract IHooks"}]},{"name":"","type":"uint256","internalType":"uint256"},{"name":"","type":"uint256","internalType":"uint256"},{"name":"","type":"bytes","internalType":"bytes"}],"outputs":[{"name":"","type":"bytes4","internalType":"bytes4"}],"stateMutability":"nonpayable"},{"type":"function","name":"beforeInitialize","inputs":[{"name":"","type":"address","internalType":"address"},{"name":"key","type":"tuple","internalType":"struct PoolKey","components":[{"name":"currency0","type":"address","internalType":"Currency"},{"name":"currency1","type":"address","internalType":"Currency"},{"name":"fee","type":"uint24","internalType":"uint24"},{"name":"tickSpacing","type":"int24","internalType":"int24"},{"name":"hooks","type":"address","internalType":"contract IHooks"}]},{"name":"","type":"uint160","internalType":"uint160"},{"name":"","type":"bytes","internalType":"bytes"}],"outputs":[{"name":"","type":"bytes4","internalType":"bytes4"}],"stateMutability":"view"},{"type":"function","name":"beforeRemoveLiquidity","inputs":[{"name":"","type":"address","internalType":"address"},{"name":"","type":"tuple","internalType":"struct PoolKey","components":[{"name":"currency0","type":"address","internalType":"Currency"},{"name":"currency1","type":"address","internalType":"Currency"},{"name":"fee","type":"uint24","internalType":"uint24"},{"name":"tickSpacing","type":"int24","internalType":"int24"},{"name":"hooks","type":"address","internalType":"contract IHooks"}]},{"name":"","type":"tuple","internalType":"struct IPoolManager.ModifyLiquidityParams","components":[{"name":"tickLower","type":"int24","internalType":"int24"},{"name":"tickUpper","type":"int24","internalType":"int24"},{"name":"liquidityDelta","type":"int256","internalType":"int256"},{"name":"salt","type":"bytes32","internalType":"bytes32"}]},{"name":"","type":"bytes","internalType":"bytes"}],"outputs":[{"name":"","type":"bytes4","internalType":"bytes4"}],"stateMutability":"view"},{"type":"function","name":"beforeSwap","inputs":[{"name":"","type":"address","internalType":"address"},{"name":"key","type":"tuple","internalType":"struct PoolKey","components":[{"name":"currency0","type":"address","internalType":"Currency"},{"name":"currency1","type":"address","internalType":"Currency"},{"name":"fee","type":"uint24","internalType":"uint24"},{"name":"tickSpacing","type":"int24","internalType":"int24"},{"name":"hooks","type":"address","internalType":"contract IHooks"}]},{"name":"","type":"tuple","internalType":"struct IPoolManager.SwapParams","components":[{"name":"zeroForOne","type":"bool","internalType":"bool"},{"name":"amountSpecified","type":"int256","internalType":"int256"},{"name":"sqrtPriceLimitX96","type":"uint160","internalType":"uint160"}]},{"name":"","type":"bytes","internalType":"bytes"}],"outputs":[{"name":"","type":"bytes4","internalType":"bytes4"},{"name":"","type":"int256","internalType":"BeforeSwapDelta"},{"name":"","type":"uint24","internalType":"uint24"}],"stateMutability":"nonpayable"},{"type":"function","name":"getHookPermissions","inputs":[],"outputs":[{"name":"","type":"tuple","internalType":"struct Hooks.Permissions","components":[{"name":"beforeInitialize","type":"bool","internalType":"bool"},{"name":"afterInitialize","type":"bool","internalType":"bool"},{"name":"beforeAddLiquidity","type":"bool","internalType":"bool"},{"name":"afterAddLiquidity","type":"bool","internalType":"bool"},{"name":"beforeRemoveLiquidity","type":"bool","internalType":"bool"},{"name":"afterRemoveLiquidity","type":"bool","internalType":"bool"},{"name":"beforeSwap","type":"bool","internalType":"bool"},{"name":"afterSwap","type":"bool","internalType":"bool"},{"name":"beforeDonate","type":"bool","internalType":"bool"},{"name":"afterDonate","type":"bool","internalType":"bool"},{"name":"beforeSwapReturnDelta","type":"bool","internalType":"bool"},{"name":"afterSwapReturnDelta","type":"bool","internalType":"bool"},{"name":"afterAddLiquidityReturnDelta","type":"bool","internalType":"bool"},{"name":"afterRemoveLiquidityReturnDelta","type":"bool","internalType":"bool"}]}],"stateMutability":"pure"},{"type":"function","name":"getObservation","inputs":[{"name":"key","type":"tuple","internalType":"struct PoolKey","components":[{"name":"currency0","type":"address","internalType":"Currency"},{"name":"currency1","type":"address","internalType":"Currency"},{"name":"fee","type":"uint24","internalType":"uint24"},{"name":"tickSpacing","type":"int24","internalType":"int24"},{"name":"hooks","type":"address","internalType":"contract IHooks"}]},{"name":"index","type":"uint256","internalType":"uint256"}],"outputs":[{"name":"observation","type":"tuple","internalType":"struct Oracle.Observation","components":[{"name":"blockTimestamp","type":"uint32","internalType":"uint32"},{"name":"tickCumulative","type":"int56","internalType":"int56"},{"name":"secondsPerLiquidityCumulativeX128","type":"uint160","internalType":"uint160"},{"name":"initialized","type":"bool","internalType":"bool"}]}],"stateMutability":"view"},{"type":"function","name":"getState","inputs":[{"name":"key","type":"tuple","internalType":"struct PoolKey","components":[{"name":"currency0","type":"address","internalType":"Currency"},{"name":"currency1","type":"address","internalType":"Currency"},{"name":"fee","type":"uint24","internalType":"uint24"},{"name":"tickSpacing","type":"int24","internalType":"int24"},{"name":"hooks","type":"address","internalType":"contract IHooks"}]}],"outputs":[{"name":"state","type":"tuple","internalType":"struct GeoMeanOracle.ObservationState","components":[{"name":"index","type":"uint16","internalType":"uint16"},{"name":"cardinality","type":"uint16","internalType":"uint16"},{"name":"cardinalityNext","type":"uint16","internalType":"uint16"}]}],"stateMutability":"view"},{"type":"function","name":"increaseCardinality","inputs":[{"name":"key","type":"tuple","internalType":"struct PoolKey","components":[{"name":"currency0","type":"address","internalType":"Currency"},{"name":"currency1","type":"address","internalType":"Currency"},{"name":"fee","type":"uint24","internalType":"uint24"},{"name":"tickSpacing","type":"int24","internalType":"int24"},{"name":"hooks","type":"address","internalType":"contract IHooks"}]},{"name":"cardinalityNext","type":"uint16","internalType":"uint16"}],"outputs":[{"name":"cardinalityNextOld","type":"uint16","internalType":"uint16"},{"name":"cardinalityNextNew","type":"uint16","internalType":"uint16"}],"stateMutability":"nonpayable"},{"type":"function","name":"manager","inputs":[],"outputs":[{"name":"","type":"address","internalType":"contract IPoolManager"}],"stateMutability":"view"},{"type":"function","name":"observations","inputs":[{"name":"","type":"bytes32","internalType":"PoolId"},{"name":"","type":"uint256","internalType":"uint256"}],"outputs":[{"name":"blockTimestamp","type":"uint32","internalType":"uint32"},{"name":"tickCumulative","type":"int56","internalType":"int56"},{"name":"secondsPerLiquidityCumulativeX128","type":"uint160","internalType":"uint160"},{"name":"initialized","type":"bool","internalType":"bool"}],"stateMutability":"view"},{"type":"function","name":"observe","inputs":[{"name":"key","type":"tuple","internalType":"struct PoolKey","components":[{"name":"currency0","type":"address","internalType":"Currency"},{"name":"currency1","type":"address","internalType":"Currency"},{"name":"fee","type":"uint24","internalType":"uint24"},{"name":"tickSpacing","type":"int24","internalType":"int24"},{"name":"hooks","type":"address","internalType":"contract IHooks"}]},{"name":"secondsAgos","type":"uint32[]","internalType":"uint32[]"}],"outputs":[{"name":"tickCumulatives","type":"int56[]","internalType":"int56[]"},{"name":"secondsPerLiquidityCumulativeX128s","type":"uint160[]","internalType":"uint160[]"}],"stateMutability":"view"},{"type":"function","name":"setTime","inputs":[{"name":"_time","type":"uint32","internalType":"uint32"}],"outputs":[],"stateMutability":"nonpayable"},{"type":"function","name":"states","inputs":[{"name":"","type":"bytes32","internalType":"PoolId"}],"outputs":[{"name":"index","type":"uint16","internalType":"uint16"},{"name":"cardinality","type":"uint16","internalType":"uint16"},{"name":"cardinalityNext","type":"uint16","internalType":"uint16"}],"stateMutability":"view"},{"type":"function","name":"time","inputs":[],"outputs":[{"name":"","type":"uint32","internalType":"uint32"}],"stateMutability":"view"},{"type":"function","name":"unlockCallback","inputs":[{"name":"data","type":"bytes","internalType":"bytes"}],"outputs":[{"name":"","type":"bytes","internalType":"bytes"}],"stateMutability":"nonpayable"},{"type":"error","name":"HookNotImplemented","inputs":[]},{"type":"error","name":"InvalidPool","inputs":[]},{"type":"error","name":"LockFailure","inputs":[]},{"type":"error","name":"NotManager","inputs":[]},{"type":"error","name":"NotSelf","inputs":[]},{"type":"error","name":"OnlyOneOraclePoolAllowed","inputs":[]},{"type":"error","name":"OracleCardinalityCannotBeZero","inputs":[]},{"type":"error","name":"OraclePoolMustLockLiquidity","inputs":[]},{"type":"error","name":"OraclePositionsMustBeFullRange","inputs":[]},{"type":"error","name":"TargetPredatesOldestObservation","inputs":[{"name":"oldestTimestamp","type":"uint32","internalType":"uint32"},{"name":"targetTimestamp","type":"uint32","internalType":"uint32"}]}],"bytecode":{"object":"0x60a060405234801562000010575f80fd5b5060405162003064380380620030648339810160408190526200003391620002c5565b6001600160a01b038216608052816200013990508162000133604080516101c0810182525f80825260208201819052918101829052606081018290526080810182905260a0810182905260c0810182905260e08101829052610100810182905261012081018290526101408101829052610160810182905261018081018290526101a081019190915250604080516101c0810182526001808252602082018190529181018290525f606082018190526080820183905260a0820181905260c082019290925260e08101829052610100810182905261012081018290526101408101829052610160810182905261018081018290526101a081019190915290565b62000144565b505062000302565b50565b8051151561200083161515141580620001695750602081015115156110008316151514155b80620001815750604081015115156108008316151514155b80620001995750606081015115156104008316151514155b80620001b15750608081015115156102008316151514155b80620001c9575060a081015115156101008316151514155b80620001e0575060c0810151151560808316151514155b80620001f7575060e0810151151560408316151514155b806200020f5750610100810151151560208316151514155b80620002275750610120810151151560108316151514155b806200023f5750610140810151151560088316151514155b80620002575750610160810151151560048316151514155b806200026f5750610180810151151560028316151514155b806200028757506101a0810151151560018316151514155b15620002a057620002a0630732d7b560e51b83620002a4565b5050565b815f528060045260245ffd5b6001600160a01b038116811462000141575f80fd5b5f8060408385031215620002d7575f80fd5b8251620002e481620002b0565b6020840151909250620002f781620002b0565b809150509250929050565b608051612cf56200036f5f395f818161020b015281816106870152818161072901528181610783015281816108db0152818161095101528181610a7201528181610b5101528181610c8f0152818161108e015281816110c0015281816111fe01526112300152612cf55ff3fe608060405234801561000f575f80fd5b506004361061016e575f3560e01c80639f6569e0116100d2578063dd71cea811610088578063efb40e5711610063578063efb40e5714610588578063f96f97f2146105ef578063fbdc1ef114610610575f80fd5b8063dd71cea8146104ee578063e1b4af69146103e4578063e3b077a114610548575f80fd5b8063b47b2fb1116100b8578063b47b2fb11461039b578063b6a8b0fa146103e4578063c4e833ce146103f7575f80fd5b80639f6569e01461035a578063a910f80f14610388575f80fd5b8063575e24b4116101275780638db2b6521161010d5780638db2b652146102a85780638e98cf44146102f357806391dd73461461033a575f80fd5b8063575e24b4146102525780635a2a8100146102a8575f80fd5b8063259982e511610157578063259982e5146101e05780633440d820146101f3578063481c6a7514610206575f80fd5b806316ada5471461017257806321d0ee701461019c575b5f80fd5b6002546101829063ffffffff1681565b60405163ffffffff90911681526020015b60405180910390f35b6101af6101aa3660046123b7565b61066e565b6040517fffffffff000000000000000000000000000000000000000000000000000000009091168152602001610193565b6101af6101ee3660046123b7565b610710565b6101af61020136600461242e565b6108c2565b61022d7f000000000000000000000000000000000000000000000000000000000000000081565b60405173ffffffffffffffffffffffffffffffffffffffff9091168152602001610193565b610265610260366004612498565b610a57565b604080517fffffffff000000000000000000000000000000000000000000000000000000009094168452602084019290925262ffffff1690820152606001610193565b6102bb6102b63660046124f2565b610b03565b604080517fffffffff000000000000000000000000000000000000000000000000000000009093168352602083019190915201610193565b610338610301366004612573565b600280547fffffffffffffffffffffffffffffffffffffffffffffffffffffffff000000001663ffffffff92909216919091179055565b005b61034d610348366004612596565b610b37565b60405161019391906125d5565b61036d61036836600461263f565b610bbb565b6040805161ffff938416815292909116602083015201610193565b6101af610396366004612694565b610c76565b6103a96102b6366004612700565b604080517fffffffff000000000000000000000000000000000000000000000000000000009093168352600f9190910b602083015201610193565b6101af6103f2366004612763565b610dc7565b6104e1604080516101c0810182525f80825260208201819052918101829052606081018290526080810182905260a0810182905260c0810182905260e08101829052610100810182905261012081018290526101408101829052610160810182905261018081018290526101a081019190915250604080516101c0810182526001808252602082018190529181018290525f606082018190526080820183905260a0820181905260c082019290925260e08101829052610100810182905261012081018290526101408101829052610160810182905261018081018290526101a081019190915290565b60405161019391906127bd565b6105016104fc3660046128a9565b610dfa565b6040805163ffffffff909516855260069390930b602085015273ffffffffffffffffffffffffffffffffffffffff9091169183019190915215156060820152608001610193565b61055b6105563660046128c9565b610e7a565b60408051825161ffff90811682526020808501518216908301529282015190921690820152606001610193565b61059b6105963660046128e3565b610f27565b6040516101939190815163ffffffff16815260208083015160060b9082015260408083015173ffffffffffffffffffffffffffffffffffffffff169082015260609182015115159181019190915260800190565b6106026105fd36600461290c565b61101b565b60405161019392919061298c565b61064961061e366004612a1e565b60016020525f908152604090205461ffff808216916201000081048216916401000000009091041683565b6040805161ffff94851681529284166020840152921691810191909152606001610193565b5f3373ffffffffffffffffffffffffffffffffffffffff7f000000000000000000000000000000000000000000000000000000000000000016146106de576040517fc0fc8a8a00000000000000000000000000000000000000000000000000000000815260040160405180910390fd5b6040517fc7e87ced00000000000000000000000000000000000000000000000000000000815260040160405180910390fd5b5f3373ffffffffffffffffffffffffffffffffffffffff7f00000000000000000000000000000000000000000000000000000000000000001614610780576040517fc0fc8a8a00000000000000000000000000000000000000000000000000000000815260040160405180910390fd5b5f7f000000000000000000000000000000000000000000000000000000000000000073ffffffffffffffffffffffffffffffffffffffff166360460f066040518163ffffffff1660e01b8152600401602060405180830381865afa1580156107ea573d5f803e3d5ffd5b505050506040513d601f19601f8201168201806040525081019061080e9190612a35565b905061081981611179565b60020b6108296020870187612a50565b60020b141580610856575061083d816111b6565b60020b6108506040870160208801612a50565b60020b14155b1561088d576040517fd07a010d00000000000000000000000000000000000000000000000000000000815260040160405180910390fd5b610896866111ce565b507f259982e5000000000000000000000000000000000000000000000000000000009695505050505050565b5f3373ffffffffffffffffffffffffffffffffffffffff7f00000000000000000000000000000000000000000000000000000000000000001614610932576040517fc0fc8a8a00000000000000000000000000000000000000000000000000000000815260040160405180910390fd5b6109426060860160408701612a7d565b62ffffff161515806109f557507f000000000000000000000000000000000000000000000000000000000000000073ffffffffffffffffffffffffffffffffffffffff166360460f066040518163ffffffff1660e01b8152600401602060405180830381865afa1580156109b8573d5f803e3d5ffd5b505050506040513d601f19601f820116820180604052508101906109dc9190612a35565b60020b6109ef6080870160608801612a50565b60020b14155b15610a2c576040517fc424964a00000000000000000000000000000000000000000000000000000000815260040160405180910390fd5b507f3440d8200000000000000000000000000000000000000000000000000000000095945050505050565b5f80803373ffffffffffffffffffffffffffffffffffffffff7f00000000000000000000000000000000000000000000000000000000000000001614610ac9576040517fc0fc8a8a00000000000000000000000000000000000000000000000000000000815260040160405180910390fd5b610ad2876111ce565b507f575e24b400000000000000000000000000000000000000000000000000000000975f9750879650945050505050565b5f806040517f0a85dc2900000000000000000000000000000000000000000000000000000000815260040160405180910390fd5b60603373ffffffffffffffffffffffffffffffffffffffff7f00000000000000000000000000000000000000000000000000000000000000001614610ba8576040517fc0fc8a8a00000000000000000000000000000000000000000000000000000000815260040160405180910390fd5b610bb28383611341565b90505b92915050565b5f805f84604051602001610bcf9190612a96565b604080518083037fffffffffffffffffffffffffffffffffffffffffffffffffffffffffffffffe001815291815281516020928301205f8181526001845282812080549482905292902064010000000090930461ffff169550925090610c36908587611400565b81547fffffffffffffffffffffffffffffffffffffffffffffffffffff0000ffffffff1664010000000061ffff8316021790915592959294509192505050565b5f3373ffffffffffffffffffffffffffffffffffffffff7f00000000000000000000000000000000000000000000000000000000000000001614610ce6576040517fc0fc8a8a00000000000000000000000000000000000000000000000000000000815260040160405180910390fd5b5f610d00610cf936899003890189612b52565b60a0902090565b9050610d27610d1460025463ffffffff1690565b5f838152602081905260409020906114c7565b5f9283526001602052604090922080547fffffffffffffffffffffffffffffffffffffffffffffffffffff00000000ffff1664010000000061ffff948516027fffffffffffffffffffffffffffffffffffffffffffffffffffffffff0000ffff1617620100009290931691909102919091179055507fa910f80f000000000000000000000000000000000000000000000000000000009695505050505050565b5f6040517f0a85dc2900000000000000000000000000000000000000000000000000000000815260040160405180910390fd5b5f602052815f5260405f208161ffff8110610e13575f80fd5b015463ffffffff81169250640100000000810460060b91506b010000000000000000000000810473ffffffffffffffffffffffffffffffffffffffff16907f0100000000000000000000000000000000000000000000000000000000000000900460ff1684565b604080516060810182525f808252602082018190529181019190915260015f83604051602001610eaa9190612a96565b604080517fffffffffffffffffffffffffffffffffffffffffffffffffffffffffffffffe081840301815291815281516020928301208352828201939093529082015f208251606081018452905461ffff808216835262010000820481169383019390935264010000000090049091169181019190915292915050565b604080516080810182525f8082526020820181905291810182905260608101919091525f8084604051602001610f5d9190612a96565b6040516020818303038152906040528051906020012081526020019081526020015f208261ffff8110610f9257610f92612c07565b60408051608081018252929091015463ffffffff81168352640100000000810460060b602084015273ffffffffffffffffffffffffffffffffffffffff6b0100000000000000000000008204169183019190915260ff7f010000000000000000000000000000000000000000000000000000000000000090910416151560608201529392505050565b6060805f611031610cf936889003880188612b52565b5f8181526001602090815260408083208151606081018352905461ffff80821683526201000082048116948301949094526401000000009004909216908201529192506110b473ffffffffffffffffffffffffffffffffffffffff7f00000000000000000000000000000000000000000000000000000000000000001684611523565b50509150505f611103847f000000000000000000000000000000000000000000000000000000000000000073ffffffffffffffffffffffffffffffffffffffff1661160890919063ffffffff16565b905061116961111760025463ffffffff1690565b8989808060200260200160405190810160405280939291908181526020018383602002808284375f92018290525089516020808c01518d845290839052604090922096959450899350915087906116ba565b9550955050505050935093915050565b5f81600281900b7ffffffffffffffffffffffffffffffffffffffffffffffffffffffffffff27618816111ae576111ae612c34565b050292915050565b5f81600281900b620d89e8816111ae576111ae612c34565b5f6111e1610cf936849003840184612b52565b90505f61122473ffffffffffffffffffffffffffffffffffffffff7f00000000000000000000000000000000000000000000000000000000000000001683611523565b50509150505f611273837f000000000000000000000000000000000000000000000000000000000000000073ffffffffffffffffffffffffffffffffffffffff1661160890919063ffffffff16565b5f848152600160205260409020549091506112d49061ffff1661129b60025463ffffffff1690565b5f86815260016020908152604080832054918390529091209291908690869061ffff620100008204811691640100000000900416611829565b5f9485526001602052604090942080547fffffffffffffffffffffffffffffffffffffffffffffffffffffffff00000000166201000061ffff968716027fffffffffffffffffffffffffffffffffffffffffffffffffffffffffffff000016179190941617909255505050565b60605f803073ffffffffffffffffffffffffffffffffffffffff16858560405161136c929190612c61565b5f604051808303815f865af19150503d805f81146113a5576040519150601f19603f3d011682016040523d82523d5f602084013e6113aa565b606091505b509150915081156113be579150610bb59050565b80515f036113f8576040517fa40afa3800000000000000000000000000000000000000000000000000000000815260040160405180910390fd5b805160208201fd5b5f8261ffff165f0361143e576040517fab7760cc00000000000000000000000000000000000000000000000000000000815260040160405180910390fd5b8261ffff168261ffff16116114545750816114c0565b825b8261ffff168161ffff1610156114bb576001858261ffff1661ffff811061147f5761147f612c07565b0180547fffffffffffffffffffffffffffffffffffffffffffffffffffffffff000000001663ffffffff92909216919091179055600101611456565b508190505b9392505050565b6040805160808101825263ffffffff83168082525f6020830181905292820192909252600160609091018190527f01000000000000000000000000000000000000000000000000000000000000009091178355805b9250929050565b5f805f805f61153186611a3f565b6040517f1e2eaeaf000000000000000000000000000000000000000000000000000000008152600481018290529091505f9073ffffffffffffffffffffffffffffffffffffffff891690631e2eaeaf90602401602060405180830381865afa15801561159f573d5f803e3d5ffd5b505050506040513d601f19601f820116820180604052508101906115c39190612c70565b905073ffffffffffffffffffffffffffffffffffffffff811695508060a01c60020b945062ffffff8160b81c16935062ffffff8160d01c169250505092959194509250565b5f8061161383611a3f565b90505f611621600383612c87565b6040517f1e2eaeaf0000000000000000000000000000000000000000000000000000000081526004810182905290915073ffffffffffffffffffffffffffffffffffffffff861690631e2eaeaf90602401602060405180830381865afa15801561168d573d5f803e3d5ffd5b505050506040513d601f19601f820116820180604052508101906116b19190612c70565b95945050505050565b6060808261ffff165f036116fa576040517fab7760cc00000000000000000000000000000000000000000000000000000000815260040160405180910390fd5b865167ffffffffffffffff81111561171457611714612b25565b60405190808252806020026020018201604052801561173d578160200160208202803683370190505b509150865167ffffffffffffffff81111561175a5761175a612b25565b604051908082528060200260200182016040528015611783578160200160208202803683370190505b5090505f5b875181101561181c576117b98a8a8a84815181106117a8576117a8612c07565b60200260200101518a8a8a8a611a7b565b8483815181106117cb576117cb612c07565b602002602001018484815181106117e4576117e4612c07565b73ffffffffffffffffffffffffffffffffffffffff9093166020938402919091019092019190915260069190910b9052600101611788565b5097509795505050505050565b5f805f898961ffff1661ffff811061184357611843612c07565b60408051608081018252919092015463ffffffff808216808452640100000000830460060b60208501526b010000000000000000000000830473ffffffffffffffffffffffffffffffffffffffff16948401949094527f010000000000000000000000000000000000000000000000000000000000000090910460ff1615156060830152909250891690036118de5788859250925050611a33565b8461ffff168461ffff161180156118ff57506001850361ffff168961ffff16145b1561190c57839150611910565b8491505b8161ffff168960010161ffff168161192a5761192a612c34565b06925061193981898989611c5e565b8a8461ffff1661ffff811061195057611950612c07565b8251910180546020840151604085015160609095015115157f0100000000000000000000000000000000000000000000000000000000000000027effffffffffffffffffffffffffffffffffffffffffffffffffffffffffffff73ffffffffffffffffffffffffffffffffffffffff9096166b01000000000000000000000002959095166affffffffffffffffffffff66ffffffffffffff909216640100000000027fffffffffffffffffffffffffffffffffffffffffff000000000000000000000090931663ffffffff90951694909417919091171691909117919091179055505b97509795505050505050565b6040515f90611a5e908390600690602001918252602082015260400190565b604051602081830303815290604052805190602001209050919050565b5f808663ffffffff165f03611b53575f898661ffff1661ffff8110611aa257611aa2612c07565b60408051608081018252919092015463ffffffff808216808452640100000000830460060b60208501526b010000000000000000000000830473ffffffffffffffffffffffffffffffffffffffff16948401949094527f010000000000000000000000000000000000000000000000000000000000000090910460ff16151560608301529092508a1614611b3f57611b3c818a8988611c5e565b90505b806020015181604001519250925050611a33565b8688035f80611b678c8c858c8c8c8c611d4b565b91509150815f015163ffffffff168363ffffffff1603611b97578160200151826040015194509450505050611a33565b805f015163ffffffff168363ffffffff1603611bc3578060200151816040015194509450505050611a33565b5f825f0151825f01510390505f835f0151850390508063ffffffff168263ffffffff1660060b856020015185602001510360060b81611c0457611c04612c34565b05028460200151018263ffffffff168263ffffffff16866040015186604001510373ffffffffffffffffffffffffffffffffffffffff160281611c4957611c49612c34565b04856040015101965096505050505050611a33565b604080516080810182525f8082526020820181905291810182905260608101919091525f855f01518503905060405180608001604052808663ffffffff1681526020018263ffffffff168660020b0288602001510160060b81526020015f856fffffffffffffffffffffffffffffffff1611611cdb576001611cdd565b845b6fffffffffffffffffffffffffffffffff1673ffffffff00000000000000000000000000000000608085901b1681611d1757611d17612c34565b0488604001510173ffffffffffffffffffffffffffffffffffffffff16815260200160011515815250915050949350505050565b604080516080810182525f808252602082018190529181018290526060810191909152604080516080810182525f808252602082018190529181018290526060810191909152888561ffff1661ffff8110611da857611da8612c07565b60408051608081018252919092015463ffffffff8116808352640100000000820460060b60208401526b010000000000000000000000820473ffffffffffffffffffffffffffffffffffffffff16938301939093527f0100000000000000000000000000000000000000000000000000000000000000900460ff16151560608201529250611e389089908961201a565b15611e6457815163ffffffff888116911614611a335781611e5b83898988611c5e565b91509150611a33565b888361ffff168660010161ffff1681611e7f57611e7f612c34565b0661ffff1661ffff8110611e9557611e95612c07565b60408051608081018252929091015463ffffffff81168352640100000000810460060b602084015273ffffffffffffffffffffffffffffffffffffffff6b0100000000000000000000008204169183019190915260ff7f010000000000000000000000000000000000000000000000000000000000000090910416151560608201819052909250611fa257604080516080810182528a5463ffffffff81168252640100000000810460060b60208301526b010000000000000000000000810473ffffffffffffffffffffffffffffffffffffffff16928201929092527f010000000000000000000000000000000000000000000000000000000000000090910460ff161515606082015291505b611fb088835f01518961201a565b611ffd5781516040517f28e44dc000000000000000000000000000000000000000000000000000000000815263ffffffff9182166004820152908816602482015260440160405180910390fd5b61200a89898988876120da565b9150915097509795505050505050565b5f8363ffffffff168363ffffffff161115801561204357508363ffffffff168263ffffffff1611155b1561205f578163ffffffff168363ffffffff16111590506114c0565b5f8463ffffffff168463ffffffff1611612086578363ffffffff166401000000000161208e565b8363ffffffff165b64ffffffffff1690505f8563ffffffff168463ffffffff16116120be578363ffffffff16640100000000016120c6565b8363ffffffff165b64ffffffffff169091111595945050505050565b604080516080810182525f808252602082018190529181018290526060810191909152604080516080810182525f8082526020820181905291810182905260608101919091525f8361ffff168560010161ffff168161213b5761213b612c34565b0661ffff1690505f60018561ffff1683010390505f5b506002818301048961ffff8716828161216c5761216c612c34565b0661ffff811061217e5761217e612c07565b60408051608081018252929091015463ffffffff81168352640100000000810460060b602084015273ffffffffffffffffffffffffffffffffffffffff6b0100000000000000000000008204169183019190915260ff7f01000000000000000000000000000000000000000000000000000000000000009091041615156060820181905290955061221457806001019250612151565b898661ffff16826001018161222b5761222b612c34565b0661ffff811061223d5761223d612c07565b60408051608081018252929091015463ffffffff81168352640100000000810460060b602084015273ffffffffffffffffffffffffffffffffffffffff6b0100000000000000000000008204169183019190915260ff7f0100000000000000000000000000000000000000000000000000000000000000909104161515606082015285519094505f906122d2908b908b61201a565b90508080156122ea57506122ea8a8a875f015161201a565b156122f55750612312565b806123055760018203925061230c565b8160010193505b50612151565b5050509550959350505050565b73ffffffffffffffffffffffffffffffffffffffff81168114612340575f80fd5b50565b803561234e8161231f565b919050565b5f60a08284031215612363575f80fd5b50919050565b5f60808284031215612363575f80fd5b5f8083601f840112612389575f80fd5b50813567ffffffffffffffff8111156123a0575f80fd5b60208301915083602082850101111561151c575f80fd5b5f805f805f61016086880312156123cc575f80fd5b85356123d78161231f565b94506123e68760208801612353565b93506123f58760c08801612369565b925061014086013567ffffffffffffffff811115612411575f80fd5b61241d88828901612379565b969995985093965092949392505050565b5f805f805f6101008688031215612443575f80fd5b853561244e8161231f565b945061245d8760208801612353565b935060c086013561246d8161231f565b925060e086013567ffffffffffffffff811115612411575f80fd5b5f60608284031215612363575f80fd5b5f805f805f61014086880312156124ad575f80fd5b85356124b88161231f565b94506124c78760208801612353565b93506124d68760c08801612488565b925061012086013567ffffffffffffffff811115612411575f80fd5b5f805f805f806101808789031215612508575f80fd5b86356125138161231f565b95506125228860208901612353565b94506125318860c08901612369565b9350610140870135925061016087013567ffffffffffffffff811115612555575f80fd5b61256189828a01612379565b979a9699509497509295939492505050565b5f60208284031215612583575f80fd5b813563ffffffff811681146114c0575f80fd5b5f80602083850312156125a7575f80fd5b823567ffffffffffffffff8111156125bd575f80fd5b6125c985828601612379565b90969095509350505050565b5f602080835283518060208501525f5b81811015612601578581018301518582016040015282016125e5565b505f6040828601015260407fffffffffffffffffffffffffffffffffffffffffffffffffffffffffffffffe0601f8301168501019250505092915050565b5f8060c08385031215612650575f80fd5b61265a8484612353565b915060a083013561ffff81168114612670575f80fd5b809150509250929050565b8060020b8114612340575f80fd5b803561234e8161267b565b5f805f805f8061012087890312156126aa575f80fd5b86356126b58161231f565b95506126c48860208901612353565b945060c08701356126d48161231f565b935060e08701356126e48161267b565b925061010087013567ffffffffffffffff811115612555575f80fd5b5f805f805f806101608789031215612716575f80fd5b86356127218161231f565b95506127308860208901612353565b945061273f8860c08901612488565b9350610120870135925061014087013567ffffffffffffffff811115612555575f80fd5b5f805f805f806101208789031215612779575f80fd5b86356127848161231f565b95506127938860208901612353565b945060c0870135935060e0870135925061010087013567ffffffffffffffff811115612555575f80fd5b8151151581526101c0810160208301516127db602084018215159052565b5060408301516127ef604084018215159052565b506060830151612803606084018215159052565b506080830151612817608084018215159052565b5060a083015161282b60a084018215159052565b5060c083015161283f60c084018215159052565b5060e083015161285360e084018215159052565b5061010083810151151590830152610120808401511515908301526101408084015115159083015261016080840151151590830152610180808401511515908301526101a0928301511515929091019190915290565b5f80604083850312156128ba575f80fd5b50508035926020909101359150565b5f60a082840312156128d9575f80fd5b610bb28383612353565b5f8060c083850312156128f4575f80fd5b6128fe8484612353565b9460a0939093013593505050565b5f805f60c0848603121561291e575f80fd5b6129288585612353565b925060a084013567ffffffffffffffff80821115612944575f80fd5b818601915086601f830112612957575f80fd5b813581811115612965575f80fd5b8760208260051b8501011115612979575f80fd5b6020830194508093505050509250925092565b604080825283519082018190525f906020906060840190828701845b828110156129c757815160060b845292840192908401906001016129a8565b505050838103828501528451808252858301918301905f5b81811015612a1157835173ffffffffffffffffffffffffffffffffffffffff16835292840192918401916001016129df565b5090979650505050505050565b5f60208284031215612a2e575f80fd5b5035919050565b5f60208284031215612a45575f80fd5b81516114c08161267b565b5f60208284031215612a60575f80fd5b81356114c08161267b565b803562ffffff8116811461234e575f80fd5b5f60208284031215612a8d575f80fd5b610bb282612a6b565b60a081018235612aa58161231f565b73ffffffffffffffffffffffffffffffffffffffff9081168352602084013590612ace8261231f565b808216602085015262ffffff612ae660408701612a6b565b16604085015260608501359150612afc8261267b565b8160020b606085015260808501359150612b158261231f565b8082166080850152505092915050565b7f4e487b71000000000000000000000000000000000000000000000000000000005f52604160045260245ffd5b5f60a08284031215612b62575f80fd5b60405160a0810181811067ffffffffffffffff82111715612baa577f4e487b71000000000000000000000000000000000000000000000000000000005f52604160045260245ffd5b6040528235612bb88161231f565b81526020830135612bc88161231f565b6020820152612bd960408401612a6b565b6040820152612bea60608401612689565b6060820152612bfb60808401612343565b60808201529392505050565b7f4e487b71000000000000000000000000000000000000000000000000000000005f52603260045260245ffd5b7f4e487b71000000000000000000000000000000000000000000000000000000005f52601260045260245ffd5b818382375f9101908152919050565b5f60208284031215612c80575f80fd5b5051919050565b80820180821115610bb5577f4e487b71000000000000000000000000000000000000000000000000000000005f52601160045260245ffdfea26469706673582212202afeae34b59b20615e00660916936d921c50fdc6dddaebd746257e08a2820a2064736f6c63430008180033","linkReferences":{}},"methodIdentifiers":{"afterAddLiquidity(address,(address,address,uint24,int24,address),(int24,int24,int256,bytes32),int256,bytes)":"5a2a8100","afterDonate(address,(address,address,uint24,int24,address),uint256,uint256,bytes)":"e1b4af69","afterInitialize(address,(address,address,uint24,int24,address),uint160,int24,bytes)":"a910f80f","afterRemoveLiquidity(address,(address,address,uint24,int24,address),(int24,int24,int256,bytes32),int256,bytes)":"8db2b652","afterSwap(address,(address,address,uint24,int24,address),(bool,int256,uint160),int256,bytes)":"b47b2fb1","beforeAddLiquidity(address,(address,address,uint24,int24,address),(int24,int24,int256,bytes32),bytes)":"259982e5","beforeDonate(address,(address,address,uint24,int24,address),uint256,uint256,bytes)":"b6a8b0fa","beforeInitialize(address,(address,address,uint24,int24,address),uint160,bytes)":"3440d820","beforeRemoveLiquidity(address,(address,address,uint24,int24,address),(int24,int24,int256,bytes32),bytes)":"21d0ee70","beforeSwap(address,(address,address,uint24,int24,address),(bool,int256,uint160),bytes)":"575e24b4","getHookPermissions()":"c4e833ce","getObservation((address,address,uint24,int24,address),uint256)":"efb40e57","getState((address,address,uint24,int24,address))":"e3b077a1","increaseCardinality((address,address,uint24,int24,address),uint16)":"9f6569e0","manager()":"481c6a75","observations(bytes32,uint256)":"dd71cea8","observe((address,address,uint24,int24,address),uint32[])":"f96f97f2","setTime(uint32)":"8e98cf44","states(bytes32)":"fbdc1ef1","time()":"16ada547","unlockCallback(bytes)":"91dd7346"},"id":96}